{
  "_format": "hh-sol-artifact-1",
  "contractName": "MarsFrameAttestation",
  "sourceName": "contracts/MarsFrameAttestation.sol",
  "abi": [
    {
      "inputs": [],
      "stateMutability": "nonpayable",
      "type": "constructor"
    },
    {
      "anonymous": false,
      "inputs": [
        {
          "indexed": true,
          "internalType": "address",
          "name": "engine",
          "type": "address"
        },
        {
          "indexed": false,
          "internalType": "bool",
          "name": "authorized",
          "type": "bool"
        }
      ],
      "name": "EngineAuthorizationChanged",
      "type": "event"
    },
    {
      "anonymous": false,
      "inputs": [
        {
          "indexed": true,
          "internalType": "uint64",
          "name": "sol",
          "type": "uint64"
        },
        {
          "indexed": false,
          "internalType": "bytes32",
          "name": "frameHash",
          "type": "bytes32"
        },
        {
          "indexed": false,
          "internalType": "bytes16",
          "name": "engineId",
          "type": "bytes16"
        },
        {
          "indexed": false,
          "internalType": "uint64",
          "name": "timestamp",
          "type": "uint64"
        }
      ],
      "name": "FrameAttested",
      "type": "event"
    },
    {
      "inputs": [
        {
          "internalType": "uint64",
          "name": "sol",
          "type": "uint64"
        },
        {
          "internalType": "bytes32",
          "name": "frameHash",
          "type": "bytes32"
        },
        {
          "internalType": "bytes32",
          "name": "prevFrameHash",
          "type": "bytes32"
        },
        {
          "internalType": "bytes24",
          "name": "engineSignature",
          "type": "bytes24"
        },
        {
          "internalType": "bytes16",
          "name": "engineId",
          "type": "bytes16"
        }
      ],
      "name": "attest",
      "outputs": [],
      "stateMutability": "nonpayable",
      "type": "function"
    },
    {
      "inputs": [
        {
          "internalType": "uint64",
          "name": "",
          "type": "uint64"
        }
      ],
      "name": "attestations",
      "outputs": [
        {
          "internalType": "uint64",
          "name": "sol",
          "type": "uint64"
        },
        {
          "internalType": "bytes32",
          "name": "frameHash",
          "type": "bytes32"
        },
        {
          "internalType": "bytes32",
          "name": "prevFrameHash",
          "type": "bytes32"
        },
        {
          "internalType": "bytes24",
          "name": "engineSignature",
          "type": "bytes24"
        },
        {
          "internalType": "bytes16",
          "name": "engineId",
          "type": "bytes16"
        },
        {
          "internalType": "uint64",
          "name": "timestamp",
          "type": "uint64"
        }
      ],
      "stateMutability": "view",
      "type": "function"
    },
    {
      "inputs": [
        {
          "internalType": "address",
          "name": "engine",
          "type": "address"
        }
      ],
      "name": "authorizeEngine",
      "outputs": [],
      "stateMutability": "nonpayable",
      "type": "function"
    },
    {
      "inputs": [
        {
          "internalType": "address",
          "name": "",
          "type": "address"
        }
      ],
      "name": "authorizedEngines",
      "outputs": [
        {
          "internalType": "bool",
          "name": "",
          "type": "bool"
        }
      ],
      "stateMutability": "view",
      "type": "function"
    },
    {
      "inputs": [
        {
          "internalType": "uint64",
          "name": "sol",
          "type": "uint64"
        }
      ],
      "name": "getAttestation",
      "outputs": [
        {
          "components": [
            {
              "internalType": "uint64",
              "name": "sol",
              "type": "uint64"
            },
            {
              "internalType": "bytes32",
              "name": "frameHash",
              "type": "bytes32"
            },
            {
              "internalType": "bytes32",
              "name": "prevFrameHash",
              "type": "bytes32"
            },
            {
              "internalType": "bytes24",
              "name": "engineSignature",
              "type": "bytes24"
            },
            {
              "internalType": "bytes16",
              "name": "engineId",
              "type": "bytes16"
            },
            {
              "internalType": "uint64",
              "name": "timestamp",
              "type": "uint64"
            }
          ],
          "internalType": "struct MarsFrameAttestation.Attestation",
          "name": "",
          "type": "tuple"
        }
      ],
      "stateMutability": "view",
      "type": "function"
    },
    {
      "inputs": [],
      "name": "latestSol",
      "outputs": [
        {
          "internalType": "uint64",
          "name": "",
          "type": "uint64"
        }
      ],
      "stateMutability": "view",
      "type": "function"
    },
    {
      "inputs": [],
      "name": "owner",
      "outputs": [
        {
          "internalType": "address",
          "name": "",
          "type": "address"
        }
      ],
      "stateMutability": "view",
      "type": "function"
    },
    {
      "inputs": [
        {
          "internalType": "address",
          "name": "engine",
          "type": "address"
        }
      ],
      "name": "revokeEngine",
      "outputs": [],
      "stateMutability": "nonpayable",
      "type": "function"
    },
    {
      "inputs": [],
      "name": "totalAttestations",
      "outputs": [
        {
          "internalType": "uint64",
          "name": "",
          "type": "uint64"
        }
      ],
      "stateMutability": "view",
      "type": "function"
    },
    {
      "inputs": [
        {
          "internalType": "address",
          "name": "newOwner",
          "type": "address"
        }
      ],
      "name": "transferOwnership",
      "outputs": [],
      "stateMutability": "nonpayable",
      "type": "function"
    },
    {
      "inputs": [
        {
          "internalType": "uint64",
          "name": "sol",
          "type": "uint64"
        },
        {
          "internalType": "bytes32",
          "name": "frameHash",
          "type": "bytes32"
        }
      ],
      "name": "verify",
      "outputs": [
        {
          "internalType": "bool",
          "name": "valid",
          "type": "bool"
        },
        {
          "internalType": "uint64",
          "name": "attestedAt",
          "type": "uint64"
        }
      ],
      "stateMutability": "view",
      "type": "function"
    },
    {
      "inputs": [
        {
          "internalType": "uint64",
          "name": "fromSol",
          "type": "uint64"
        },
        {
          "internalType": "uint64",
          "name": "toSol",
          "type": "uint64"
        }
      ],
      "name": "verifyChainSegment",
      "outputs": [
        {
          "internalType": "bool",
          "name": "intact",
          "type": "bool"
        }
      ],
      "stateMutability": "view",
      "type": "function"
    }
  ],
  "bytecode": "0x608060405234801561001057600080fd5b50336000806101000a81548173ffffffffffffffffffffffffffffffffffffffff021916908373ffffffffffffffffffffffffffffffffffffffff1602179055506001600360003373ffffffffffffffffffffffffffffffffffffffff1673ffffffffffffffffffffffffffffffffffffffff16815260200190815260200160002060006101000a81548160ff021916908315150217905550611a8b806100b86000396000f3fe608060405234801561001057600080fd5b50600436106100b45760003560e01c80638da5cb5b116100715780638da5cb5b1461018b578063a2ec70be146101a9578063b1bf884a146101da578063e396b7971461020a578063e6c40fb714610228578063f2fde38b1461025d576100b4565b80633d5e1a76146100b957806357edbcfc146100e957806360485742146101055780636225288014610123578063627204e31461015357806372bb44371461016f575b600080fd5b6100d360048036038101906100ce9190611098565b610279565b6040516100e091906110f3565b60405180910390f35b61010360048036038101906100fe91906111f4565b610413565b005b61010d6108c5565b60405161011a919061127e565b60405180910390f35b61013d60048036038101906101389190611299565b6108df565b60405161014a919061137d565b60405180910390f35b61016d600480360381019061016891906113f6565b610a02565b005b610189600480360381019061018491906113f6565b610b3a565b005b610193610c72565b6040516101a09190611432565b60405180910390f35b6101c360048036038101906101be919061144d565b610c96565b6040516101d192919061148d565b60405180910390f35b6101f460048036038101906101ef91906113f6565b610ded565b60405161020191906110f3565b60405180910390f35b610212610e0d565b60405161021f919061127e565b60405180910390f35b610242600480360381019061023d9190611299565b610e27565b604051610254969594939291906114e3565b60405180910390f35b610277600480360381019061027291906113f6565b610ea5565b005b600060018367ffffffffffffffff16101580156102aa57508267ffffffffffffffff168267ffffffffffffffff1610155b6102e9576040517f08c379a00000000000000000000000000000000000000000000000000000000081526004016102e0906115a1565b60405180910390fd5b600260009054906101000a900467ffffffffffffffff1667ffffffffffffffff168267ffffffffffffffff161115610356576040517f08c379a000000000000000000000000000000000000000000000000000000000815260040161034d9061160d565b60405180910390fd5b6000600184610365919061165c565b90505b8267ffffffffffffffff168167ffffffffffffffff161161040757600160006001836103949190611698565b67ffffffffffffffff1667ffffffffffffffff16815260200190815260200160002060010154600160008367ffffffffffffffff1667ffffffffffffffff16815260200190815260200160002060020154146103f457600091505061040d565b80806103ff906116d4565b915050610368565b50600190505b92915050565b600360003373ffffffffffffffffffffffffffffffffffffffff1673ffffffffffffffffffffffffffffffffffffffff16815260200190815260200160002060009054906101000a900460ff1661049f576040517f08c379a000000000000000000000000000000000000000000000000000000000815260040161049690611750565b60405180910390fd5b6000600460009054906101000a900467ffffffffffffffff1667ffffffffffffffff16036105195760018567ffffffffffffffff1614610514576040517f08c379a000000000000000000000000000000000000000000000000000000000815260040161050b906117bc565b60405180910390fd5b610614565b6001600260009054906101000a900467ffffffffffffffff1661053c919061165c565b67ffffffffffffffff168567ffffffffffffffff1614610591576040517f08c379a000000000000000000000000000000000000000000000000000000000815260040161058890611828565b60405180910390fd5b60016000600260009054906101000a900467ffffffffffffffff1667ffffffffffffffff1667ffffffffffffffff168152602001908152602001600020600101548314610613576040517f08c379a000000000000000000000000000000000000000000000000000000000815260040161060a906118ba565b60405180910390fd5b5b6000600160008767ffffffffffffffff1667ffffffffffffffff16815260200190815260200160002060040160109054906101000a900467ffffffffffffffff1667ffffffffffffffff161461069f576040517f08c379a000000000000000000000000000000000000000000000000000000000815260040161069690611926565b60405180910390fd5b6040518060c001604052808667ffffffffffffffff1681526020018581526020018481526020018367ffffffffffffffff19168152602001826fffffffffffffffffffffffffffffffff191681526020014267ffffffffffffffff16815250600160008767ffffffffffffffff1667ffffffffffffffff16815260200190815260200160002060008201518160000160006101000a81548167ffffffffffffffff021916908367ffffffffffffffff160217905550602082015181600101556040820151816002015560608201518160030160006101000a81548177ffffffffffffffffffffffffffffffffffffffffffffffff021916908360401c021790555060808201518160040160006101000a8154816fffffffffffffffffffffffffffffffff021916908360801c021790555060a08201518160040160106101000a81548167ffffffffffffffff021916908367ffffffffffffffff16021790555090505084600260006101000a81548167ffffffffffffffff021916908367ffffffffffffffff1602179055506004600081819054906101000a900467ffffffffffffffff1680929190610851906116d4565b91906101000a81548167ffffffffffffffff021916908367ffffffffffffffff160217905550508467ffffffffffffffff167fed1129ee4a45b435366a8cecb43b97f156180d62f0748b8dcfb7307f01bbdb778583426040516108b693929190611946565b60405180910390a25050505050565b600460009054906101000a900467ffffffffffffffff1681565b6108e7610fe5565b600160008367ffffffffffffffff1667ffffffffffffffff1681526020019081526020016000206040518060c00160405290816000820160009054906101000a900467ffffffffffffffff1667ffffffffffffffff1667ffffffffffffffff16815260200160018201548152602001600282015481526020016003820160009054906101000a900460401b67ffffffffffffffff191667ffffffffffffffff191681526020016004820160009054906101000a900460801b6fffffffffffffffffffffffffffffffff19166fffffffffffffffffffffffffffffffff191681526020016004820160109054906101000a900467ffffffffffffffff1667ffffffffffffffff1667ffffffffffffffff16815250509050919050565b60008054906101000a900473ffffffffffffffffffffffffffffffffffffffff1673ffffffffffffffffffffffffffffffffffffffff163373ffffffffffffffffffffffffffffffffffffffff1614610a90576040517f08c379a0000000000000000000000000000000000000000000000000000000008152600401610a87906119c9565b60405180910390fd5b6000600360008373ffffffffffffffffffffffffffffffffffffffff1673ffffffffffffffffffffffffffffffffffffffff16815260200190815260200160002060006101000a81548160ff0219169083151502179055508073ffffffffffffffffffffffffffffffffffffffff167fc559d1adf7ff91003a0f32d33378b86a86dbff8607cc52286050d5108a4110316000604051610b2f91906110f3565b60405180910390a250565b60008054906101000a900473ffffffffffffffffffffffffffffffffffffffff1673ffffffffffffffffffffffffffffffffffffffff163373ffffffffffffffffffffffffffffffffffffffff1614610bc8576040517f08c379a0000000000000000000000000000000000000000000000000000000008152600401610bbf906119c9565b60405180910390fd5b6001600360008373ffffffffffffffffffffffffffffffffffffffff1673ffffffffffffffffffffffffffffffffffffffff16815260200190815260200160002060006101000a81548160ff0219169083151502179055508073ffffffffffffffffffffffffffffffffffffffff167fc559d1adf7ff91003a0f32d33378b86a86dbff8607cc52286050d5108a4110316001604051610c6791906110f3565b60405180910390a250565b60008054906101000a900473ffffffffffffffffffffffffffffffffffffffff1681565b6000806000600160008667ffffffffffffffff1667ffffffffffffffff1681526020019081526020016000206040518060c00160405290816000820160009054906101000a900467ffffffffffffffff1667ffffffffffffffff1667ffffffffffffffff16815260200160018201548152602001600282015481526020016003820160009054906101000a900460401b67ffffffffffffffff191667ffffffffffffffff191681526020016004820160009054906101000a900460801b6fffffffffffffffffffffffffffffffff19166fffffffffffffffffffffffffffffffff191681526020016004820160109054906101000a900467ffffffffffffffff1667ffffffffffffffff1667ffffffffffffffff1681525050905060008160a0015167ffffffffffffffff1603610dd4576000809250925050610de6565b838160200151148160a0015192509250505b9250929050565b60036020528060005260406000206000915054906101000a900460ff1681565b600260009054906101000a900467ffffffffffffffff1681565b60016020528060005260406000206000915090508060000160009054906101000a900467ffffffffffffffff16908060010154908060020154908060030160009054906101000a900460401b908060040160009054906101000a900460801b908060040160109054906101000a900467ffffffffffffffff16905086565b60008054906101000a900473ffffffffffffffffffffffffffffffffffffffff1673ffffffffffffffffffffffffffffffffffffffff163373ffffffffffffffffffffffffffffffffffffffff1614610f33576040517f08c379a0000000000000000000000000000000000000000000000000000000008152600401610f2a906119c9565b60405180910390fd5b600073ffffffffffffffffffffffffffffffffffffffff168173ffffffffffffffffffffffffffffffffffffffff1603610fa2576040517f08c379a0000000000000000000000000000000000000000000000000000000008152600401610f9990611a35565b60405180910390fd5b806000806101000a81548173ffffffffffffffffffffffffffffffffffffffff021916908373ffffffffffffffffffffffffffffffffffffffff16021790555050565b6040518060c00160405280600067ffffffffffffffff1681526020016000801916815260200160008019168152602001600067ffffffffffffffff1916815260200160006fffffffffffffffffffffffffffffffff19168152602001600067ffffffffffffffff1681525090565b600080fd5b600067ffffffffffffffff82169050919050565b61107581611058565b811461108057600080fd5b50565b6000813590506110928161106c565b92915050565b600080604083850312156110af576110ae611053565b5b60006110bd85828601611083565b92505060206110ce85828601611083565b9150509250929050565b60008115159050919050565b6110ed816110d8565b82525050565b600060208201905061110860008301846110e4565b92915050565b6000819050919050565b6111218161110e565b811461112c57600080fd5b50565b60008135905061113e81611118565b92915050565b60007fffffffffffffffffffffffffffffffffffffffffffffffff000000000000000082169050919050565b61117981611144565b811461118457600080fd5b50565b60008135905061119681611170565b92915050565b60007fffffffffffffffffffffffffffffffff0000000000000000000000000000000082169050919050565b6111d18161119c565b81146111dc57600080fd5b50565b6000813590506111ee816111c8565b92915050565b600080600080600060a086880312156112105761120f611053565b5b600061121e88828901611083565b955050602061122f8882890161112f565b94505060406112408882890161112f565b935050606061125188828901611187565b9250506080611262888289016111df565b9150509295509295909350565b61127881611058565b82525050565b6000602082019050611293600083018461126f565b92915050565b6000602082840312156112af576112ae611053565b5b60006112bd84828501611083565b91505092915050565b6112cf81611058565b82525050565b6112de8161110e565b82525050565b6112ed81611144565b82525050565b6112fc8161119c565b82525050565b60c08201600082015161131860008501826112c6565b50602082015161132b60208501826112d5565b50604082015161133e60408501826112d5565b50606082015161135160608501826112e4565b50608082015161136460808501826112f3565b5060a082015161137760a08501826112c6565b50505050565b600060c0820190506113926000830184611302565b92915050565b600073ffffffffffffffffffffffffffffffffffffffff82169050919050565b60006113c382611398565b9050919050565b6113d3816113b8565b81146113de57600080fd5b50565b6000813590506113f0816113ca565b92915050565b60006020828403121561140c5761140b611053565b5b600061141a848285016113e1565b91505092915050565b61142c816113b8565b82525050565b60006020820190506114476000830184611423565b92915050565b6000806040838503121561146457611463611053565b5b600061147285828601611083565b92505060206114838582860161112f565b9150509250929050565b60006040820190506114a260008301856110e4565b6114af602083018461126f565b9392505050565b6114bf8161110e565b82525050565b6114ce81611144565b82525050565b6114dd8161119c565b82525050565b600060c0820190506114f8600083018961126f565b61150560208301886114b6565b61151260408301876114b6565b61151f60608301866114c5565b61152c60808301856114d4565b61153960a083018461126f565b979650505050505050565b600082825260208201905092915050565b7f496e76616c69642072616e676500000000000000000000000000000000000000600082015250565b600061158b600d83611544565b915061159682611555565b602082019050919050565b600060208201905081810360008301526115ba8161157e565b9050919050565b7f52616e67652065786365656473206c6174657374000000000000000000000000600082015250565b60006115f7601483611544565b9150611602826115c1565b602082019050919050565b60006020820190508181036000830152611626816115ea565b9050919050565b7f4e487b7100000000000000000000000000000000000000000000000000000000600052601160045260246000fd5b600061166782611058565b915061167283611058565b9250828201905067ffffffffffffffff8111156116925761169161162d565b5b92915050565b60006116a382611058565b91506116ae83611058565b9250828203905067ffffffffffffffff8111156116ce576116cd61162d565b5b92915050565b60006116df82611058565b915067ffffffffffffffff82036116f9576116f861162d565b5b600182019050919050565b7f4e6f7420617574686f72697a656420656e67696e650000000000000000000000600082015250565b600061173a601583611544565b915061174582611704565b602082019050919050565b600060208201905081810360008301526117698161172d565b9050919050565b7f4669727374206174746573746174696f6e206d75737420626520736f6c203100600082015250565b60006117a6601f83611544565b91506117b182611770565b602082019050919050565b600060208201905081810360008301526117d581611799565b9050919050565b7f4d757374206174746573742073657175656e7469616c6c790000000000000000600082015250565b6000611812601883611544565b915061181d826117dc565b602082019050919050565b6000602082019050818103600083015261184181611805565b9050919050565b7f436861696e206c696e6b2062726f6b656e3a20707265764672616d654861736860008201527f206d69736d617463680000000000000000000000000000000000000000000000602082015250565b60006118a4602983611544565b91506118af82611848565b604082019050919050565b600060208201905081810360008301526118d381611897565b9050919050565b7f536f6c20616c7265616479206174746573746564000000000000000000000000600082015250565b6000611910601483611544565b915061191b826118da565b602082019050919050565b6000602082019050818103600083015261193f81611903565b9050919050565b600060608201905061195b60008301866114b6565b61196860208301856114d4565b611975604083018461126f565b949350505050565b7f4e6f74206f776e65720000000000000000000000000000000000000000000000600082015250565b60006119b3600983611544565b91506119be8261197d565b602082019050919050565b600060208201905081810360008301526119e2816119a6565b9050919050565b7f5a65726f20616464726573730000000000000000000000000000000000000000600082015250565b6000611a1f600c83611544565b9150611a2a826119e9565b602082019050919050565b60006020820190508181036000830152611a4e81611a12565b905091905056fea26469706673582212201200ca63cef956cbef08b5f4dace8c40d4ccb1578fa2e673e5b6fe60767e393164736f6c63430008140033",
  "linkReferences": {},
  "deployedLinkReferences": {}
}